:1000000001308A006A290000B2013208073C031C53
:1000100023280310B10C03180F2807111028071507
:1000200020112008831687008312A0102008831651
:10003000870083128714A01020088316870083127C
:100040008710B20A052808002010200883168700B0
:10005000831207142F08B10004203008B1000420D7
:100060002010200883168700831207100800201034
:10007000200883168700831207142B08B100042080
:100080002015200883168700452846280000831283
:10009000AC012C08073C031C6E2820152008831691
:1000A0008700831207195628031057280314AD0C34
:1000B000A010200883168700831287140330F700EE
:1000C000F70B6028A0102008831687008312871082
:1000D0000330F700F70B6A28AC0A492820102008E3
:1000E00083168700831207102D08F80008002010DF
:1000F000200883168700831207100330F700F70BE0
:100100007F28A010200883168700831287108E3066
:10011000AF00B00124209030AF00A430B000242004
:100120008130AB0037207808A800280880390319EF
:100130009D288030AF00B00124208A110A1287293F
:100140003208F80131020318A8283108F700B42852
:10015000F7010830B300B10DF70D3208770203182C
:10016000F700F80DB30BAB280800F701F8013108D0
:1001700003103218F707F70CF80CB218F707F70C52
:10018000F80C3219F707F70CF80CB219F707F70C4F
:10019000F80C321AF707F70CF80CB21AF707F70C3D
:1001A000F80C321BF707F70CF80CB21BF707F70C2B
:1001B000F80C08002E08B1000A30B200A020780820
:1001C000AF002F08B1000A30B200B52078082E0227
:1001D000B0002F0EF700F030F70577083004F80074
:1001E00008002808AE00DA207808AE008630AF009C
:1001F0007808B00024202908AE00DA207808AE0084
:100200008830AF007808B00024202A08AE00DA2039
:100210007808AE008C30AF007808B00024202B089E
:10022000AE00DA207808AE008A30AF007808B0005F
:1002300024202C08AE00DA207808AE008430AF000D
:100240007808B00024202D08AE00DA207808AE002F
:100250008230AF007808B0002420AE01DA207808A0
:10026000AE008030AF007808B00024208A110A1256
:1002700099292C08AD002D0EF7000F30F7057708EF
:10028000AF00B1000A30B200B5207808AC002D0EE6
:10029000F700F030F7057708F70E0F30F70577080D
:1002A000AC072C08F80008002830840083130008ED
:1002B000031967290630F800F701F70B5D29F80BE1
:1002C0005C297B30F700F70B6329800B5A298A11D0
:1002D0000A12112A840183131F308305FF30A00006
:1002E0000130A100A2001230A3000130A400A5013A
:1002F000A601A70183161F149F141F159F118601C5
:100300008312860183168801831288017728831659
:1003100009148312091C99292108A8002208A900A0
:100320002308AA002408AB002508AC002608AD006D
:10033000F1288530AB0037207808A800AC003921BF
:100340007808A5008330AB0037207808A800AC00FF
:1003500039217808A6008130AB0037207808A80042
:10036000AC0039217808A700831688010130831278
:1003700088002708B1000A30B200A0208316860149
:100380008312770886008316880102308312880062
:100390002708B1000A30B200A0208316860183121C
:1003A00078088600831688010430831288002608A6
:1003B000B1000A30B200A0208316860183127708AC
:1003C0008600831688010830831288002608B10051
:1003D0000A30B200A02083168601831278088600B6
:1003E000831688011030831288002508B1000A3076
:1003F000B200A02083168601831277088600831638
:1004000088012030831288002508B1000A30B2002C
:10041000A020831686018312780886001430A80075
:0604200054299929630034
:02400E00713F00
:00000001FF
;PIC16F877
;CRC=95BA  CREATED="24-juin-18 18:31"
